{
  "contractName": "Result",
  "abi": [
    {
      "anonymous": false,
      "inputs": [
        {
          "indexed": false,
          "internalType": "uint256",
          "name": "_date",
          "type": "uint256"
        },
        {
          "indexed": false,
          "internalType": "uint256",
          "name": "_id",
          "type": "uint256"
        },
        {
          "indexed": false,
          "internalType": "address",
          "name": "_admin",
          "type": "address"
        }
      ],
      "name": "newSubject",
      "type": "event"
    },
    {
      "constant": true,
      "inputs": [],
      "name": "nextSubjectId",
      "outputs": [
        {
          "internalType": "uint8",
          "name": "",
          "type": "uint8"
        }
      ],
      "payable": false,
      "stateMutability": "view",
      "type": "function"
    },
    {
      "constant": true,
      "inputs": [
        {
          "internalType": "uint256",
          "name": "",
          "type": "uint256"
        }
      ],
      "name": "subjects",
      "outputs": [
        {
          "internalType": "uint256",
          "name": "id",
          "type": "uint256"
        },
        {
          "internalType": "uint256",
          "name": "uid",
          "type": "uint256"
        },
        {
          "internalType": "address",
          "name": "admin",
          "type": "address"
        },
        {
          "internalType": "string",
          "name": "hash",
          "type": "string"
        }
      ],
      "payable": false,
      "stateMutability": "view",
      "type": "function"
    },
    {
      "constant": false,
      "inputs": [
        {
          "internalType": "uint256",
          "name": "_uid",
          "type": "uint256"
        },
        {
          "internalType": "string",
          "name": "_hash",
          "type": "string"
        }
      ],
      "name": "addSubjectHash",
      "outputs": [],
      "payable": false,
      "stateMutability": "nonpayable",
      "type": "function"
    },
    {
      "constant": true,
      "inputs": [],
      "name": "getSubjectHash",
      "outputs": [
        {
          "components": [
            {
              "internalType": "uint256",
              "name": "id",
              "type": "uint256"
            },
            {
              "internalType": "uint256",
              "name": "uid",
              "type": "uint256"
            },
            {
              "internalType": "address",
              "name": "admin",
              "type": "address"
            },
            {
              "internalType": "string",
              "name": "hash",
              "type": "string"
            }
          ],
          "internalType": "struct Result.Subject[]",
          "name": "",
          "type": "tuple[]"
        }
      ],
      "payable": false,
      "stateMutability": "view",
      "type": "function"
    }
  ],
  "bytecode": "0x608060405260006001556000600260006101000a81548160ff021916908360ff16021790555034801561003157600080fd5b50610b2d806100416000396000f3fe608060405234801561001057600080fd5b506004361061004c5760003560e01c806317b96d41146100515780632c7424af1461006f5780634be97c75146100a2578063de00b6c4146100be575b600080fd5b6100596100dc565b6040516100669190610927565b60405180910390f35b610089600480360361008491908101906105ed565b6100ef565b60405161009994939291906108db565b60405180910390f35b6100bc60048036036100b79190810190610616565b6101e4565b005b6100c661031f565b6040516100d39190610862565b60405180910390f35b600260009054906101000a900460ff1681565b600081815481106100fc57fe5b90600052602060002090600402016000915090508060000154908060010154908060020160009054906101000a900473ffffffffffffffffffffffffffffffffffffffff1690806003018054600181600116156101000203166002900480601f0160208091040260200160405190810160405280929190818152602001828054600181600116156101000203166002900480156101da5780601f106101af576101008083540402835291602001916101da565b820191906000526020600020905b8154815290600101906020018083116101bd57829003601f168201915b5050505050905084565b6101f96001805461048a90919063ffffffff16565b6001819055506000604051806080016040528060015481526020018481526020013373ffffffffffffffffffffffffffffffffffffffff1681526020018381525090806001815401808255809150509060018203906000526020600020906004020160009091929091909150600082015181600001556020820151816001015560408201518160020160006101000a81548173ffffffffffffffffffffffffffffffffffffffff021916908373ffffffffffffffffffffffffffffffffffffffff16021790555060608201518160030190805190602001906102dc9291906104df565b505050507f3fc2346e62ce16f73fd4e03901a5dfc9309ee7bc00b94fdae8befc18af431500428333604051610313939291906108a4565b60405180910390a15050565b60606000805480602002602001604051908101604052809291908181526020016000905b82821015610481578382906000526020600020906004020160405180608001604052908160008201548152602001600182015481526020016002820160009054906101000a900473ffffffffffffffffffffffffffffffffffffffff1673ffffffffffffffffffffffffffffffffffffffff1673ffffffffffffffffffffffffffffffffffffffff168152602001600382018054600181600116156101000203166002900480601f0160208091040260200160405190810160405280929190818152602001828054600181600116156101000203166002900480156104695780601f1061043e57610100808354040283529160200191610469565b820191906000526020600020905b81548152906001019060200180831161044c57829003601f168201915b50505050508152505081526020019060010190610343565b50505050905090565b6000808284019050838110156104d5576040517f08c379a00000000000000000000000000000000000000000000000000000000081526004016104cc90610884565b60405180910390fd5b8091505092915050565b828054600181600116156101000203166002900490600052602060002090601f016020900481019282601f1061052057805160ff191683800117855561054e565b8280016001018555821561054e579182015b8281111561054d578251825591602001919060010190610532565b5b50905061055b919061055f565b5090565b61058191905b8082111561057d576000816000905550600101610565565b5090565b90565b600082601f83011261059557600080fd5b81356105a86105a38261096f565b610942565b915080825260208301602083018583830111156105c457600080fd5b6105cf838284610a80565b50505092915050565b6000813590506105e781610ad3565b92915050565b6000602082840312156105ff57600080fd5b600061060d848285016105d8565b91505092915050565b6000806040838503121561062957600080fd5b6000610637858286016105d8565b925050602083013567ffffffffffffffff81111561065457600080fd5b61066085828601610584565b9150509250929050565b600061067683836107d2565b905092915050565b61068781610a4a565b82525050565b61069681610a01565b82525050565b6106a581610a01565b82525050565b60006106b6826109ab565b6106c081856109ce565b9350836020820285016106d28561099b565b8060005b8581101561070e57848403895281516106ef858261066a565b94506106fa836109c1565b925060208a019950506001810190506106d6565b50829750879550505050505092915050565b600061072b826109b6565b61073581856109df565b9350610745818560208601610a8f565b61074e81610ac2565b840191505092915050565b6000610764826109b6565b61076e81856109f0565b935061077e818560208601610a8f565b61078781610ac2565b840191505092915050565b600061079f601b836109f0565b91507f536166654d6174683a206164646974696f6e206f766572666c6f7700000000006000830152602082019050919050565b60006080830160008301516107ea6000860182610835565b5060208301516107fd6020860182610835565b506040830151610810604086018261068d565b50606083015184820360608601526108288282610720565b9150508091505092915050565b61083e81610a33565b82525050565b61084d81610a33565b82525050565b61085c81610a3d565b82525050565b6000602082019050818103600083015261087c81846106ab565b905092915050565b6000602082019050818103600083015261089d81610792565b9050919050565b60006060820190506108b96000830186610844565b6108c66020830185610844565b6108d3604083018461067e565b949350505050565b60006080820190506108f06000830187610844565b6108fd6020830186610844565b61090a604083018561069c565b818103606083015261091c8184610759565b905095945050505050565b600060208201905061093c6000830184610853565b92915050565b6000604051905081810181811067ffffffffffffffff8211171561096557600080fd5b8060405250919050565b600067ffffffffffffffff82111561098657600080fd5b601f19601f8301169050602081019050919050565b6000819050602082019050919050565b600081519050919050565b600081519050919050565b6000602082019050919050565b600082825260208201905092915050565b600082825260208201905092915050565b600082825260208201905092915050565b6000610a0c82610a13565b9050919050565b600073ffffffffffffffffffffffffffffffffffffffff82169050919050565b6000819050919050565b600060ff82169050919050565b6000610a5582610a5c565b9050919050565b6000610a6782610a6e565b9050919050565b6000610a7982610a13565b9050919050565b82818337600083830152505050565b60005b83811015610aad578082015181840152602081019050610a92565b83811115610abc576000848401525b50505050565b6000601f19601f8301169050919050565b610adc81610a33565b8114610ae757600080fd5b5056fea365627a7a7231582076d7aae55cb91e6fb090cc5fa62f9c8e1d88ea850209c1b3dd0201424caee1066c6578706572696d656e74616cf564736f6c63430005100040",
  "source": "//SPDX-License-Identifier: MIT\npragma solidity >= 0.5.16 < 0.7.0;\npragma experimental ABIEncoderV2;\nimport \"./SafeMath.sol\";\n\ncontract Result {\n  using SafeMath for uint256;\n\n  // mapping(uint256 => Subject[]) public subjects;\n  Subject[] public subjects;\n  uint256 studentSubjectCtr = 0;\n  uint8 public nextSubjectId = 0;\n\n  event newSubject (uint256 _date, uint256 _id, address _admin);\n\n  struct Subject {\n    uint256 id;\n    uint256 uid;\n    address admin;\n    string hash;\n  }\n\n  // function addSubjectHash(uint256 _uid,  string memory _hash) public {\n  //   nextSubjectId = nextSubjectId.add(1);\n  //   subjects[nextSubjectId].push(Subject({\n  //     id: nextSubjectId,\n  //     uid: _uid,\n  //     admin: msg.sender,\n  //     hash: _hash\n  //   }));\n  // }\n\n  function addSubjectHash(uint256 _uid, string memory _hash) public {\n    studentSubjectCtr = studentSubjectCtr.add(1);\n    subjects.push(Subject(studentSubjectCtr, _uid, msg.sender, _hash));\n\n    // Emit notification\n    emit newSubject(now, _uid, msg.sender);\n  }\n\n  function getSubjectHash() external view returns (Subject[] memory) {\n    return subjects;\n  }\n}\n",
  "sourcePath": "C:\\Users\\Alabs\\Documents\\Management\\Management\\contracts\\Result.sol",
  "compiler": {
    "name": "solc",
    "version": "0.5.16+commit.9c3226ce.Emscripten.clang"
  },
  "schemaVersion": "3.2.1",
  "updatedAt": "2020-07-07T19:32:43.483Z",
  "devdoc": {
    "methods": {}
  },
  "userdoc": {
    "methods": {}
  }
}