{
  "contractName": "Result",
  "abi": [
    {
      "anonymous": false,
      "inputs": [
        {
          "indexed": false,
          "internalType": "address",
          "name": "_admin",
          "type": "address"
        },
        {
          "indexed": false,
          "internalType": "uint256",
          "name": "_id",
          "type": "uint256"
        }
      ],
      "name": "NewResult",
      "type": "event"
    },
    {
      "constant": true,
      "inputs": [],
      "name": "resultCount",
      "outputs": [
        {
          "internalType": "uint256",
          "name": "",
          "type": "uint256"
        }
      ],
      "payable": false,
      "stateMutability": "view",
      "type": "function"
    },
    {
      "constant": true,
      "inputs": [
        {
          "internalType": "uint256",
          "name": "",
          "type": "uint256"
        }
      ],
      "name": "studentResults",
      "outputs": [
        {
          "internalType": "uint256",
          "name": "id",
          "type": "uint256"
        },
        {
          "internalType": "address",
          "name": "admin",
          "type": "address"
        },
        {
          "internalType": "string",
          "name": "hash",
          "type": "string"
        }
      ],
      "payable": false,
      "stateMutability": "view",
      "type": "function"
    },
    {
      "constant": false,
      "inputs": [
        {
          "internalType": "uint256",
          "name": "_id",
          "type": "uint256"
        },
        {
          "internalType": "string",
          "name": "hash",
          "type": "string"
        }
      ],
      "name": "sendResultHash",
      "outputs": [],
      "payable": false,
      "stateMutability": "nonpayable",
      "type": "function"
    },
    {
      "constant": true,
      "inputs": [
        {
          "internalType": "uint256",
          "name": "_id",
          "type": "uint256"
        }
      ],
      "name": "getResultHash",
      "outputs": [
        {
          "internalType": "uint256",
          "name": "id",
          "type": "uint256"
        },
        {
          "internalType": "address",
          "name": "admin",
          "type": "address"
        },
        {
          "internalType": "string",
          "name": "hash",
          "type": "string"
        }
      ],
      "payable": false,
      "stateMutability": "view",
      "type": "function"
    },
    {
      "constant": true,
      "inputs": [],
      "name": "getResultCtr",
      "outputs": [
        {
          "internalType": "uint256",
          "name": "",
          "type": "uint256"
        }
      ],
      "payable": false,
      "stateMutability": "view",
      "type": "function"
    },
    {
      "constant": true,
      "inputs": [],
      "name": "getResultLength",
      "outputs": [
        {
          "internalType": "uint256",
          "name": "",
          "type": "uint256"
        }
      ],
      "payable": false,
      "stateMutability": "view",
      "type": "function"
    }
  ],
  "bytecode": "0x608060405234801561001057600080fd5b5061085c806100206000396000f3fe608060405234801561001057600080fd5b50600436106100625760003560e01c8063014a5633146100675780630c1a215d14610148578063421e91621461020d578063aa4fdefb1461022b578063c7d16dff14610249578063d6031cfb14610267575b600080fd5b6100936004803603602081101561007d57600080fd5b8101908080359060200190929190505050610348565b604051808481526020018373ffffffffffffffffffffffffffffffffffffffff1673ffffffffffffffffffffffffffffffffffffffff16815260200180602001828103825283818151815260200191508051906020019080838360005b8381101561010b5780820151818401526020810190506100f0565b50505050905090810190601f1680156101385780820380516001836020036101000a031916815260200191505b5094505050505060405180910390f35b61020b6004803603604081101561015e57600080fd5b81019080803590602001909291908035906020019064010000000081111561018557600080fd5b82018360208201111561019757600080fd5b803590602001918460018302840111640100000000831117156101b957600080fd5b91908080601f016020809104026020016040519081016040528093929190818152602001838380828437600081840152601f19601f820116905080830192505050505050509192919290505050610437565b005b6102156105ae565b6040518082815260200191505060405180910390f35b6102336105ba565b6040518082815260200191505060405180910390f35b6102516105c0565b6040518082815260200191505060405180910390f35b6102936004803603602081101561027d57600080fd5b81019080803590602001909291905050506105ca565b604051808481526020018373ffffffffffffffffffffffffffffffffffffffff1673ffffffffffffffffffffffffffffffffffffffff16815260200180602001828103825283818151815260200191508051906020019080838360005b8381101561030b5780820151818401526020810190506102f0565b50505050905090810190601f1680156103385780820380516001836020036101000a031916815260200191505b5094505050505060405180910390f35b6000818154811061035557fe5b90600052602060002090600302016000915090508060000154908060010160009054906101000a900473ffffffffffffffffffffffffffffffffffffffff1690806002018054600181600116156101000203166002900480601f01602080910402602001604051908101604052809291908181526020018280546001816001161561010002031660029004801561042d5780601f106104025761010080835404028352916020019161042d565b820191906000526020600020905b81548152906001019060200180831161041057829003601f168201915b5050505050905083565b61044c600180546106fa90919063ffffffff16565b600181905550600060405180606001604052808481526020013373ffffffffffffffffffffffffffffffffffffffff16815260200183815250908060018154018082558091505090600182039060005260206000209060030201600090919290919091506000820151816000015560208201518160010160006101000a81548173ffffffffffffffffffffffffffffffffffffffff021916908373ffffffffffffffffffffffffffffffffffffffff160217905550604082015181600201908051906020019061051d929190610782565b505050507f27aeebb79058233f6105e074406c724c8c787ef2c63ec0e0a94d9c33ffea04b5336000848154811061055057fe5b906000526020600020906003020160000154604051808373ffffffffffffffffffffffffffffffffffffffff1673ffffffffffffffffffffffffffffffffffffffff1681526020018281526020019250505060405180910390a15050565b60008080549050905090565b60015481565b6000600154905090565b6000806060600084815481106105dc57fe5b906000526020600020906003020160000154925082600085815481106105fe57fe5b906000526020600020906003020160010160009054906101000a900473ffffffffffffffffffffffffffffffffffffffff169250826000868154811061064057fe5b90600052602060002090600302016002018054600181600116156101000203166002900480601f0160208091040260200160405190810160405280929190818152602001828054600181600116156101000203166002900480156106e55780601f106106ba576101008083540402835291602001916106e5565b820191906000526020600020905b8154815290600101906020018083116106c857829003601f168201915b50505050509250829250925092509193909250565b600080828401905083811015610778576040517f08c379a000000000000000000000000000000000000000000000000000000000815260040180806020018281038252601b8152602001807f536166654d6174683a206164646974696f6e206f766572666c6f77000000000081525060200191505060405180910390fd5b8091505092915050565b828054600181600116156101000203166002900490600052602060002090601f016020900481019282601f106107c357805160ff19168380011785556107f1565b828001600101855582156107f1579182015b828111156107f05782518255916020019190600101906107d5565b5b5090506107fe9190610802565b5090565b61082491905b80821115610820576000816000905550600101610808565b5090565b9056fea265627a7a723158200aa204131190a70ebb565d9c9f1abb9cf91c95bcd8b732d299dca941cc505aa164736f6c63430005100032",
  "source": "pragma solidity >=0.5.8 <0.7.0;\r\nimport \"./SafeMath.sol\";\r\n\r\ncontract Result {\r\n    using SafeMath for uint256;\r\n    StudentResult[] public studentResults;\r\n    uint256 public resultCount;\r\n\r\n    struct StudentResult {\r\n        uint256 id;\r\n        address admin;\r\n        string hash;\r\n    }\r\n\r\n    event NewResult(address _admin, uint256 _id);\r\n\r\n    function sendResultHash(\r\n        uint256 _id,\r\n        string memory hash\r\n    ) public {\r\n        resultCount = resultCount.add(1);\r\n        studentResults.push(StudentResult(_id, msg.sender, hash));\r\n        emit NewResult(msg.sender, studentResults[_id].id);\r\n    }\r\n\r\n    function getResultHash(uint256 _id) public view returns\r\n    (\r\n        uint256 id,\r\n        address admin,\r\n        string memory hash\r\n    ) {\r\n        return (\r\n            id = studentResults[_id].id,\r\n            admin = studentResults[_id].admin,\r\n            hash = studentResults[_id].hash\r\n        );\r\n    }\r\n\r\n    function getResultCtr() public view returns (uint256) { return resultCount; }\r\n\r\n    function getResultLength() public view returns(uint256) { return studentResults.length; }\r\n}\r\n",
  "sourcePath": "C:\\Users\\Alabs\\Desktop\\Folders\\eManagement\\contracts\\Result.sol",
  "compiler": {
    "name": "solc",
    "version": "0.5.16+commit.9c3226ce.Emscripten.clang"
  },
  "schemaVersion": "3.1.0",
  "updatedAt": "2020-06-04T16:30:29.774Z",
  "devdoc": {
    "methods": {}
  },
  "userdoc": {
    "methods": {}
  }
}