{
  "contractName": "Transaction",
  "abi": [
    {
      "constant": true,
      "inputs": [],
      "name": "transactionC",
      "outputs": [
        {
          "name": "",
          "type": "uint256"
        }
      ],
      "payable": false,
      "stateMutability": "view",
      "type": "function"
    },
    {
      "constant": true,
      "inputs": [
        {
          "name": "",
          "type": "uint256"
        }
      ],
      "name": "studentTransactions",
      "outputs": [
        {
          "name": "id",
          "type": "uint256"
        },
        {
          "name": "level",
          "type": "uint256"
        },
        {
          "name": "amount",
          "type": "uint256"
        },
        {
          "name": "semester",
          "type": "string"
        },
        {
          "name": "matNo",
          "type": "string"
        },
        {
          "name": "tName",
          "type": "string"
        }
      ],
      "payable": false,
      "stateMutability": "view",
      "type": "function"
    },
    {
      "constant": false,
      "inputs": [
        {
          "name": "_id",
          "type": "uint256"
        },
        {
          "name": "_level",
          "type": "uint256"
        },
        {
          "name": "_amount",
          "type": "uint256"
        },
        {
          "name": "_semester",
          "type": "string"
        },
        {
          "name": "_matNo",
          "type": "string"
        },
        {
          "name": "_tName",
          "type": "string"
        }
      ],
      "name": "addTransaction",
      "outputs": [],
      "payable": false,
      "stateMutability": "nonpayable",
      "type": "function"
    },
    {
      "constant": true,
      "inputs": [
        {
          "name": "uid",
          "type": "uint256"
        }
      ],
      "name": "getTransaction",
      "outputs": [
        {
          "name": "",
          "type": "uint256"
        },
        {
          "name": "",
          "type": "uint256"
        },
        {
          "name": "",
          "type": "string"
        },
        {
          "name": "",
          "type": "string"
        },
        {
          "name": "",
          "type": "string"
        }
      ],
      "payable": false,
      "stateMutability": "view",
      "type": "function"
    },
    {
      "constant": true,
      "inputs": [],
      "name": "transacCounter",
      "outputs": [
        {
          "name": "",
          "type": "uint256"
        }
      ],
      "payable": false,
      "stateMutability": "view",
      "type": "function"
    }
  ],
  "bytecode": "0x608060405234801561001057600080fd5b50610c61806100206000396000f3fe608060405234801561001057600080fd5b50600436106100575760003560e01c80632509f9241461005c57806333ea3dc81461007a578063620c7d2b14610207578063816e318e14610225578063e5035096146103b9575b600080fd5b6100646105c0565b6040518082815260200191505060405180910390f35b6100a66004803603602081101561009057600080fd5b81019080803590602001909291905050506105c6565b60405180868152602001858152602001806020018060200180602001848103845287818151815260200191508051906020019080838360005b838110156100fa5780820151818401526020810190506100df565b50505050905090810190601f1680156101275780820380516001836020036101000a031916815260200191505b50848103835286818151815260200191508051906020019080838360005b83811015610160578082015181840152602081019050610145565b50505050905090810190601f16801561018d5780820380516001836020036101000a031916815260200191505b50848103825285818151815260200191508051906020019080838360005b838110156101c65780820151818401526020810190506101ab565b50505050905090810190601f1680156101f35780820380516001836020036101000a031916815260200191505b509850505050505050505060405180910390f35b61020f610820565b6040518082815260200191505060405180910390f35b6102516004803603602081101561023b57600080fd5b810190808035906020019092919050505061082a565b60405180878152602001868152602001858152602001806020018060200180602001848103845287818151815260200191508051906020019080838360005b838110156102ab578082015181840152602081019050610290565b50505050905090810190601f1680156102d85780820380516001836020036101000a031916815260200191505b50848103835286818151815260200191508051906020019080838360005b838110156103115780820151818401526020810190506102f6565b50505050905090810190601f16801561033e5780820380516001836020036101000a031916815260200191505b50848103825285818151815260200191508051906020019080838360005b8381101561037757808201518184015260208101905061035c565b50505050905090810190601f1680156103a45780820380516001836020036101000a031916815260200191505b50995050505050505050505060405180910390f35b6105be600480360360c08110156103cf57600080fd5b810190808035906020019092919080359060200190929190803590602001909291908035906020019064010000000081111561040a57600080fd5b82018360208201111561041c57600080fd5b8035906020019184600183028401116401000000008311171561043e57600080fd5b91908080601f016020809104026020016040519081016040528093929190818152602001838380828437600081840152601f19601f820116905080830192505050505050509192919290803590602001906401000000008111156104a157600080fd5b8201836020820111156104b357600080fd5b803590602001918460018302840111640100000000831117156104d557600080fd5b91908080601f016020809104026020016040519081016040528093929190818152602001838380828437600081840152601f19601f8201169050808301925050505050505091929192908035906020019064010000000081111561053857600080fd5b82018360208201111561054a57600080fd5b8035906020019184600183028401116401000000008311171561056c57600080fd5b91908080601f016020809104026020016040519081016040528093929190818152602001838380828437600081840152601f19601f820116905080830192505050505050509192919290505050610a2e565b005b60015481565b600080606080606060008087815260200190815260200160002060010154600080888152602001908152602001600020600201546000808981526020019081526020016000206003016000808a81526020019081526020016000206004016000808b8152602001908152602001600020600501828054600181600116156101000203166002900480601f0160208091040260200160405190810160405280929190818152602001828054600181600116156101000203166002900480156106ce5780601f106106a3576101008083540402835291602001916106ce565b820191906000526020600020905b8154815290600101906020018083116106b157829003601f168201915b50505050509250818054600181600116156101000203166002900480601f01602080910402602001604051908101604052809291908181526020018280546001816001161561010002031660029004801561076a5780601f1061073f5761010080835404028352916020019161076a565b820191906000526020600020905b81548152906001019060200180831161074d57829003601f168201915b50505050509150808054600181600116156101000203166002900480601f0160208091040260200160405190810160405280929190818152602001828054600181600116156101000203166002900480156108065780601f106107db57610100808354040283529160200191610806565b820191906000526020600020905b8154815290600101906020018083116107e957829003601f168201915b505050505090509450945094509450945091939590929450565b6000600154905090565b6000602052806000526040600020600091509050806000015490806001015490806002015490806003018054600181600116156101000203166002900480601f0160208091040260200160405190810160405280929190818152602001828054600181600116156101000203166002900480156108e85780601f106108bd576101008083540402835291602001916108e8565b820191906000526020600020905b8154815290600101906020018083116108cb57829003601f168201915b505050505090806004018054600181600116156101000203166002900480601f0160208091040260200160405190810160405280929190818152602001828054600181600116156101000203166002900480156109865780601f1061095b57610100808354040283529160200191610986565b820191906000526020600020905b81548152906001019060200180831161096957829003601f168201915b505050505090806005018054600181600116156101000203166002900480601f016020809104026020016040519081016040528092919081815260200182805460018160011615610100020316600290048015610a245780601f106109f957610100808354040283529160200191610a24565b820191906000526020600020905b815481529060010190602001808311610a0757829003601f168201915b5050505050905086565b610a4360018054610b0890919063ffffffff16565b6001819055506040518060c00160405280878152602001868152602001858152602001848152602001838152602001828152506000808881526020019081526020016000206000820151816000015560208201518160010155604082015181600201556060820151816003019080519060200190610ac2929190610b90565b506080820151816004019080519060200190610adf929190610b90565b5060a0820151816005019080519060200190610afc929190610b90565b50905050505050505050565b600080828401905083811015610b86576040517f08c379a000000000000000000000000000000000000000000000000000000000815260040180806020018281038252601b8152602001807f536166654d6174683a206164646974696f6e206f766572666c6f77000000000081525060200191505060405180910390fd5b8091505092915050565b828054600181600116156101000203166002900490600052602060002090601f016020900481019282601f10610bd157805160ff1916838001178555610bff565b82800160010185558215610bff579182015b82811115610bfe578251825591602001919060010190610be3565b5b509050610c0c9190610c10565b5090565b610c3291905b80821115610c2e576000816000905550600101610c16565b5090565b9056fea165627a7a72305820ae63fe57277de813194bcea137e714a9ee84e06beea376c303b1c15edba6241f0029",
  "source": "pragma solidity >=0.5.8 <0.7.0;\r\nimport \"./SafeMath.sol\";\r\n\r\ncontract Transaction {\r\n    using SafeMath for uint256;\r\n    mapping(uint256 => StudentTransaction) public studentTransactions;\r\n    uint256 public transactionC;\r\n\r\n    struct StudentTransaction {\r\n        uint256 id;\r\n        uint256 level;\r\n        uint256 amount;\r\n        string semester;\r\n        string matNo;\r\n        string tName;\r\n    }\r\n\r\n    function addTransaction\r\n    (\r\n        uint256 _id,\r\n        uint256 _level,\r\n        uint256 _amount,\r\n        string memory _semester,\r\n        string memory _matNo,\r\n        string memory _tName\r\n    ) public {\r\n        transactionC = transactionC.add(1);\r\n        studentTransactions[_id] = StudentTransaction(\r\n            _id,\r\n            _level,\r\n            _amount,\r\n            _semester,\r\n            _matNo,\r\n            _tName\r\n        );\r\n    }\r\n\r\n    function getTransaction(uint256 uid) public view returns\r\n    (\r\n        uint256,\r\n        uint256,\r\n        string memory,\r\n        string memory,\r\n        string memory\r\n    ) {\r\n        return\r\n        (\r\n        studentTransactions[uid].level,\r\n        studentTransactions[uid].amount,\r\n        studentTransactions[uid].semester,\r\n        studentTransactions[uid].matNo,\r\n        studentTransactions[uid].tName\r\n        );\r\n    }\r\n\r\n    function transacCounter() public view returns (uint256) {\r\n        return transactionC;\r\n    }\r\n}\r\n",
  "sourcePath": "C:\\Users\\Alabs\\Desktop\\Folders\\eManagement\\contracts\\Transaction.sol",
  "compiler": {
    "name": "solc",
    "version": "0.5.8+commit.23d335f2.Emscripten.clang"
  },
  "schemaVersion": "3.1.0",
  "updatedAt": "2020-06-03T11:58:27.628Z",
  "devdoc": {
    "methods": {}
  },
  "userdoc": {
    "methods": {}
  }
}