{
  "contractName": "Management",
  "abi": [
    {
      "inputs": [],
      "payable": false,
      "stateMutability": "nonpayable",
      "type": "constructor"
    },
    {
      "anonymous": false,
      "inputs": [
        {
          "indexed": false,
          "internalType": "uint256",
          "name": "_date",
          "type": "uint256"
        },
        {
          "indexed": false,
          "internalType": "uint256",
          "name": "_id",
          "type": "uint256"
        },
        {
          "indexed": false,
          "internalType": "address",
          "name": "_admin",
          "type": "address"
        }
      ],
      "name": "newPupilHash",
      "type": "event"
    },
    {
      "anonymous": false,
      "inputs": [
        {
          "indexed": false,
          "internalType": "uint256",
          "name": "_date",
          "type": "uint256"
        },
        {
          "indexed": false,
          "internalType": "uint256",
          "name": "_id",
          "type": "uint256"
        },
        {
          "indexed": false,
          "internalType": "address",
          "name": "_admin",
          "type": "address"
        }
      ],
      "name": "newStaffHash",
      "type": "event"
    },
    {
      "anonymous": false,
      "inputs": [
        {
          "indexed": false,
          "internalType": "uint256",
          "name": "_date",
          "type": "uint256"
        },
        {
          "indexed": false,
          "internalType": "uint256",
          "name": "_id",
          "type": "uint256"
        },
        {
          "indexed": false,
          "internalType": "address",
          "name": "_admin",
          "type": "address"
        }
      ],
      "name": "newStudentHash",
      "type": "event"
    },
    {
      "anonymous": false,
      "inputs": [
        {
          "indexed": false,
          "internalType": "uint256",
          "name": "_date",
          "type": "uint256"
        },
        {
          "indexed": false,
          "internalType": "uint256",
          "name": "_id",
          "type": "uint256"
        },
        {
          "indexed": false,
          "internalType": "address",
          "name": "_admin",
          "type": "address"
        }
      ],
      "name": "newSubject",
      "type": "event"
    },
    {
      "constant": false,
      "inputs": [
        {
          "internalType": "uint256",
          "name": "_uid",
          "type": "uint256"
        },
        {
          "internalType": "string",
          "name": "_hash",
          "type": "string"
        }
      ],
      "name": "addSubjectHash",
      "outputs": [],
      "payable": false,
      "stateMutability": "nonpayable",
      "type": "function"
    },
    {
      "constant": true,
      "inputs": [],
      "name": "getSubjectHash",
      "outputs": [
        {
          "components": [
            {
              "internalType": "uint256",
              "name": "id",
              "type": "uint256"
            },
            {
              "internalType": "uint256",
              "name": "uid",
              "type": "uint256"
            },
            {
              "internalType": "address",
              "name": "admin",
              "type": "address"
            },
            {
              "internalType": "string",
              "name": "hash",
              "type": "string"
            }
          ],
          "internalType": "struct Result.Subject[]",
          "name": "",
          "type": "tuple[]"
        }
      ],
      "payable": false,
      "stateMutability": "view",
      "type": "function"
    },
    {
      "constant": true,
      "inputs": [],
      "name": "nextSubjectId",
      "outputs": [
        {
          "internalType": "uint8",
          "name": "",
          "type": "uint8"
        }
      ],
      "payable": false,
      "stateMutability": "view",
      "type": "function"
    },
    {
      "constant": true,
      "inputs": [
        {
          "internalType": "uint256",
          "name": "",
          "type": "uint256"
        }
      ],
      "name": "pupils",
      "outputs": [
        {
          "internalType": "uint256",
          "name": "id",
          "type": "uint256"
        },
        {
          "internalType": "string",
          "name": "hash",
          "type": "string"
        },
        {
          "internalType": "address",
          "name": "admin",
          "type": "address"
        }
      ],
      "payable": false,
      "stateMutability": "view",
      "type": "function"
    },
    {
      "constant": true,
      "inputs": [
        {
          "internalType": "uint256",
          "name": "",
          "type": "uint256"
        }
      ],
      "name": "staff",
      "outputs": [
        {
          "internalType": "uint256",
          "name": "id",
          "type": "uint256"
        },
        {
          "internalType": "string",
          "name": "hash",
          "type": "string"
        },
        {
          "internalType": "address",
          "name": "admin",
          "type": "address"
        }
      ],
      "payable": false,
      "stateMutability": "view",
      "type": "function"
    },
    {
      "constant": true,
      "inputs": [
        {
          "internalType": "uint256",
          "name": "",
          "type": "uint256"
        }
      ],
      "name": "students",
      "outputs": [
        {
          "internalType": "uint256",
          "name": "id",
          "type": "uint256"
        },
        {
          "internalType": "string",
          "name": "hash",
          "type": "string"
        },
        {
          "internalType": "address",
          "name": "admin",
          "type": "address"
        }
      ],
      "payable": false,
      "stateMutability": "view",
      "type": "function"
    },
    {
      "constant": true,
      "inputs": [
        {
          "internalType": "uint256",
          "name": "",
          "type": "uint256"
        }
      ],
      "name": "subjects",
      "outputs": [
        {
          "internalType": "uint256",
          "name": "id",
          "type": "uint256"
        },
        {
          "internalType": "uint256",
          "name": "uid",
          "type": "uint256"
        },
        {
          "internalType": "address",
          "name": "admin",
          "type": "address"
        },
        {
          "internalType": "string",
          "name": "hash",
          "type": "string"
        }
      ],
      "payable": false,
      "stateMutability": "view",
      "type": "function"
    },
    {
      "constant": false,
      "inputs": [
        {
          "internalType": "string",
          "name": "_hash",
          "type": "string"
        }
      ],
      "name": "sendStaffHash",
      "outputs": [],
      "payable": false,
      "stateMutability": "nonpayable",
      "type": "function"
    },
    {
      "constant": false,
      "inputs": [
        {
          "internalType": "string",
          "name": "_hash",
          "type": "string"
        }
      ],
      "name": "sendStudentHash",
      "outputs": [],
      "payable": false,
      "stateMutability": "nonpayable",
      "type": "function"
    },
    {
      "constant": false,
      "inputs": [
        {
          "internalType": "string",
          "name": "_hash",
          "type": "string"
        }
      ],
      "name": "sendPupilHash",
      "outputs": [],
      "payable": false,
      "stateMutability": "nonpayable",
      "type": "function"
    },
    {
      "constant": true,
      "inputs": [
        {
          "internalType": "uint256",
          "name": "_id",
          "type": "uint256"
        }
      ],
      "name": "getStaffHash",
      "outputs": [
        {
          "internalType": "uint256",
          "name": "id",
          "type": "uint256"
        },
        {
          "internalType": "string",
          "name": "",
          "type": "string"
        }
      ],
      "payable": false,
      "stateMutability": "view",
      "type": "function"
    },
    {
      "constant": true,
      "inputs": [
        {
          "internalType": "uint256",
          "name": "_id",
          "type": "uint256"
        }
      ],
      "name": "getStudentHash",
      "outputs": [
        {
          "internalType": "uint256",
          "name": "",
          "type": "uint256"
        },
        {
          "internalType": "string",
          "name": "",
          "type": "string"
        }
      ],
      "payable": false,
      "stateMutability": "view",
      "type": "function"
    },
    {
      "constant": true,
      "inputs": [
        {
          "internalType": "uint256",
          "name": "_id",
          "type": "uint256"
        }
      ],
      "name": "getPupilHash",
      "outputs": [
        {
          "internalType": "uint256",
          "name": "",
          "type": "uint256"
        },
        {
          "internalType": "string",
          "name": "",
          "type": "string"
        }
      ],
      "payable": false,
      "stateMutability": "view",
      "type": "function"
    }
  ],
  "bytecode": "0x608060405260006001556000600260006101000a81548160ff021916908360ff16021790555060006003556000600455600060055534801561004057600080fd5b5033600260016101000a81548173ffffffffffffffffffffffffffffffffffffffff021916908373ffffffffffffffffffffffffffffffffffffffff160217905550611895806100916000396000f3fe608060405234801561001057600080fd5b50600436106100cf5760003560e01c80636bd15fd01161008c578063a13aee6211610066578063a13aee6214610255578063ac9cc81014610271578063cc247beb1461028d578063de00b6c4146102be576100cf565b80636bd15fd0146101d65780638a021f1d146101f257806390835ef814610224576100cf565b806306ead22e146100d45780630da767661461010657806317b96d41146101375780632c7424af14610155578063377d9ff4146101885780634be97c75146101ba575b600080fd5b6100ee60048036036100e9919081019061121d565b6102dc565b6040516100fd939291906115c3565b60405180910390f35b610120600480360361011b919081019061121d565b6103be565b60405161012e929190611593565b60405180910390f35b61013f610494565b60405161014c9190611684565b60405180910390f35b61016f600480360361016a919081019061121d565b6104a7565b60405161017f9493929190611638565b60405180910390f35b6101a2600480360361019d919081019061121d565b61059c565b6040516101b1939291906115c3565b60405180910390f35b6101d460048036036101cf9190810190611246565b61067e565b005b6101f060048036036101eb91908101906111dc565b6107b9565b005b61020c6004803603610207919081019061121d565b610926565b60405161021b939291906115c3565b60405180910390f35b61023e6004803603610239919081019061121d565b610a08565b60405161024c929190611593565b60405180910390f35b61026f600480360361026a91908101906111dc565b610ade565b005b61028b600480360361028691908101906111dc565b610c4b565b005b6102a760048036036102a2919081019061121d565b610db8565b6040516102b5929190611593565b60405180910390f35b6102c6610e8e565b6040516102d39190611531565b60405180910390f35b6006602052806000526040600020600091509050806000015490806001018054600181600116156101000203166002900480601f01602080910402602001604051908101604052809291908181526020018280546001816001161561010002031660029004801561038e5780601f106103635761010080835404028352916020019161038e565b820191906000526020600020905b81548152906001019060200180831161037157829003601f168201915b5050505050908060020160009054906101000a900473ffffffffffffffffffffffffffffffffffffffff16905083565b60006060600660008481526020019081526020016000206000015460066000858152602001908152602001600020600101808054600181600116156101000203166002900480601f0160208091040260200160405190810160405280929190818152602001828054600181600116156101000203166002900480156104845780601f1061045957610100808354040283529160200191610484565b820191906000526020600020905b81548152906001019060200180831161046757829003601f168201915b5050505050905091509150915091565b600260009054906101000a900460ff1681565b600081815481106104b457fe5b90600052602060002090600402016000915090508060000154908060010154908060020160009054906101000a900473ffffffffffffffffffffffffffffffffffffffff1690806003018054600181600116156101000203166002900480601f0160208091040260200160405190810160405280929190818152602001828054600181600116156101000203166002900480156105925780601f1061056757610100808354040283529160200191610592565b820191906000526020600020905b81548152906001019060200180831161057557829003601f168201915b5050505050905084565b6007602052806000526040600020600091509050806000015490806001018054600181600116156101000203166002900480601f01602080910402602001604051908101604052809291908181526020018280546001816001161561010002031660029004801561064e5780601f106106235761010080835404028352916020019161064e565b820191906000526020600020905b81548152906001019060200180831161063157829003601f168201915b5050505050908060020160009054906101000a900473ffffffffffffffffffffffffffffffffffffffff16905083565b61069360018054610ff990919063ffffffff16565b6001819055506000604051806080016040528060015481526020018481526020013373ffffffffffffffffffffffffffffffffffffffff1681526020018381525090806001815401808255809150509060018203906000526020600020906004020160009091929091909150600082015181600001556020820151816001015560408201518160020160006101000a81548173ffffffffffffffffffffffffffffffffffffffff021916908373ffffffffffffffffffffffffffffffffffffffff160217905550606082015181600301908051906020019061077692919061104e565b505050507f3fc2346e62ce16f73fd4e03901a5dfc9309ee7bc00b94fdae8befc18af4315004283336040516107ad93929190611601565b60405180910390a15050565b600260019054906101000a900473ffffffffffffffffffffffffffffffffffffffff1673ffffffffffffffffffffffffffffffffffffffff163373ffffffffffffffffffffffffffffffffffffffff1614610849576040517f08c379a000000000000000000000000000000000000000000000000000000000815260040161084090611573565b60405180910390fd5b61085f6001600554610ff990919063ffffffff16565b600581905550600060086000600554815260200190815260200160002090506005548160000181905550818160010190805190602001906108a19291906110ce565b50338160020160006101000a81548173ffffffffffffffffffffffffffffffffffffffff021916908373ffffffffffffffffffffffffffffffffffffffff1602179055507fb8be0cd5918458bc270c8fa9747216dcac6964d4f4ec2154b4ad0e81fadd47f8426004543360405161091a93929190611601565b60405180910390a15050565b6008602052806000526040600020600091509050806000015490806001018054600181600116156101000203166002900480601f0160208091040260200160405190810160405280929190818152602001828054600181600116156101000203166002900480156109d85780601f106109ad576101008083540402835291602001916109d8565b820191906000526020600020905b8154815290600101906020018083116109bb57829003601f168201915b5050505050908060020160009054906101000a900473ffffffffffffffffffffffffffffffffffffffff16905083565b60006060600860008481526020019081526020016000206000015460086000858152602001908152602001600020600101808054600181600116156101000203166002900480601f016020809104026020016040519081016040528092919081815260200182805460018160011615610100020316600290048015610ace5780601f10610aa357610100808354040283529160200191610ace565b820191906000526020600020905b815481529060010190602001808311610ab157829003601f168201915b5050505050905091509150915091565b600260019054906101000a900473ffffffffffffffffffffffffffffffffffffffff1673ffffffffffffffffffffffffffffffffffffffff163373ffffffffffffffffffffffffffffffffffffffff1614610b6e576040517f08c379a0000000000000000000000000000000000000000000000000000000008152600401610b6590611573565b60405180910390fd5b610b846001600354610ff990919063ffffffff16565b60038190555060006006600060035481526020019081526020016000209050600354816000018190555081816001019080519060200190610bc69291906110ce565b50338160020160006101000a81548173ffffffffffffffffffffffffffffffffffffffff021916908373ffffffffffffffffffffffffffffffffffffffff1602179055507f81e394718b45c7de5ba21817680e7576c68ed38fe8d4a9c5fb2c01d6c68981c64260045433604051610c3f93929190611601565b60405180910390a15050565b600260019054906101000a900473ffffffffffffffffffffffffffffffffffffffff1673ffffffffffffffffffffffffffffffffffffffff163373ffffffffffffffffffffffffffffffffffffffff1614610cdb576040517f08c379a0000000000000000000000000000000000000000000000000000000008152600401610cd290611573565b60405180910390fd5b610cf16001600454610ff990919063ffffffff16565b60048190555060006006600060045481526020019081526020016000209050600454816000018190555081816001019080519060200190610d339291906110ce565b50338160020160006101000a81548173ffffffffffffffffffffffffffffffffffffffff021916908373ffffffffffffffffffffffffffffffffffffffff1602179055507f68b8f0919d63c8fc2244e1eba9ebfe45f7552f1d5e570fa0c430bfa8b7643de84260045433604051610dac93929190611601565b60405180910390a15050565b60006060600760008481526020019081526020016000206000015460076000858152602001908152602001600020600101808054600181600116156101000203166002900480601f016020809104026020016040519081016040528092919081815260200182805460018160011615610100020316600290048015610e7e5780601f10610e5357610100808354040283529160200191610e7e565b820191906000526020600020905b815481529060010190602001808311610e6157829003601f168201915b5050505050905091509150915091565b60606000805480602002602001604051908101604052809291908181526020016000905b82821015610ff0578382906000526020600020906004020160405180608001604052908160008201548152602001600182015481526020016002820160009054906101000a900473ffffffffffffffffffffffffffffffffffffffff1673ffffffffffffffffffffffffffffffffffffffff1673ffffffffffffffffffffffffffffffffffffffff168152602001600382018054600181600116156101000203166002900480601f016020809104026020016040519081016040528092919081815260200182805460018160011615610100020316600290048015610fd85780601f10610fad57610100808354040283529160200191610fd8565b820191906000526020600020905b815481529060010190602001808311610fbb57829003601f168201915b50505050508152505081526020019060010190610eb2565b50505050905090565b600080828401905083811015611044576040517f08c379a000000000000000000000000000000000000000000000000000000000815260040161103b90611553565b60405180910390fd5b8091505092915050565b828054600181600116156101000203166002900490600052602060002090601f016020900481019282601f1061108f57805160ff19168380011785556110bd565b828001600101855582156110bd579182015b828111156110bc5782518255916020019190600101906110a1565b5b5090506110ca919061114e565b5090565b828054600181600116156101000203166002900490600052602060002090601f016020900481019282601f1061110f57805160ff191683800117855561113d565b8280016001018555821561113d579182015b8281111561113c578251825591602001919060010190611121565b5b50905061114a919061114e565b5090565b61117091905b8082111561116c576000816000905550600101611154565b5090565b90565b600082601f83011261118457600080fd5b8135611197611192826116cc565b61169f565b915080825260208301602083018583830111156111b357600080fd5b6111be8382846117e8565b50505092915050565b6000813590506111d68161183b565b92915050565b6000602082840312156111ee57600080fd5b600082013567ffffffffffffffff81111561120857600080fd5b61121484828501611173565b91505092915050565b60006020828403121561122f57600080fd5b600061123d848285016111c7565b91505092915050565b6000806040838503121561125957600080fd5b6000611267858286016111c7565b925050602083013567ffffffffffffffff81111561128457600080fd5b61129085828601611173565b9150509250929050565b60006112a683836114a1565b905092915050565b6112b7816117b2565b82525050565b6112c681611769565b82525050565b6112d581611769565b82525050565b60006112e682611708565b6112f08185611736565b935083602082028501611302856116f8565b8060005b8581101561133e578484038952815161131f858261129a565b945061132a83611729565b925060208a01995050600181019050611306565b50829750879550505050505092915050565b600061135b8261171e565b6113658185611758565b93506113758185602086016117f7565b61137e8161182a565b840191505092915050565b600061139482611713565b61139e8185611747565b93506113ae8185602086016117f7565b6113b78161182a565b840191505092915050565b60006113cd82611713565b6113d78185611758565b93506113e78185602086016117f7565b6113f08161182a565b840191505092915050565b6000611408601b83611758565b91507f536166654d6174683a206164646974696f6e206f766572666c6f7700000000006000830152602082019050919050565b6000611448602a83611758565b91507f4f6e6c792073746166662063616e2072656769737465722073747564656e747360008301527f202f20707570696c7321000000000000000000000000000000000000000000006020830152604082019050919050565b60006080830160008301516114b96000860182611504565b5060208301516114cc6020860182611504565b5060408301516114df60408601826112bd565b50606083015184820360608601526114f78282611389565b9150508091505092915050565b61150d8161179b565b82525050565b61151c8161179b565b82525050565b61152b816117a5565b82525050565b6000602082019050818103600083015261154b81846112db565b905092915050565b6000602082019050818103600083015261156c816113fb565b9050919050565b6000602082019050818103600083015261158c8161143b565b9050919050565b60006040820190506115a86000830185611513565b81810360208301526115ba8184611350565b90509392505050565b60006060820190506115d86000830186611513565b81810360208301526115ea81856113c2565b90506115f960408301846112cc565b949350505050565b60006060820190506116166000830186611513565b6116236020830185611513565b61163060408301846112ae565b949350505050565b600060808201905061164d6000830187611513565b61165a6020830186611513565b61166760408301856112cc565b818103606083015261167981846113c2565b905095945050505050565b60006020820190506116996000830184611522565b92915050565b6000604051905081810181811067ffffffffffffffff821117156116c257600080fd5b8060405250919050565b600067ffffffffffffffff8211156116e357600080fd5b601f19601f8301169050602081019050919050565b6000819050602082019050919050565b600081519050919050565b600081519050919050565b600081519050919050565b6000602082019050919050565b600082825260208201905092915050565b600082825260208201905092915050565b600082825260208201905092915050565b60006117748261177b565b9050919050565b600073ffffffffffffffffffffffffffffffffffffffff82169050919050565b6000819050919050565b600060ff82169050919050565b60006117bd826117c4565b9050919050565b60006117cf826117d6565b9050919050565b60006117e18261177b565b9050919050565b82818337600083830152505050565b60005b838110156118155780820151818401526020810190506117fa565b83811115611824576000848401525b50505050565b6000601f19601f8301169050919050565b6118448161179b565b811461184f57600080fd5b5056fea365627a7a7231582073047ed53f6a37ef8404708c67457cc330ee0e2ac017bd43367652ad37341c7c6c6578706572696d656e74616cf564736f6c63430005100040",
  "source": "//SPDX-License-Identifier: MIT\npragma solidity >= 0.5.16 < 0.7.0;\npragma experimental ABIEncoderV2;\nimport \"./SafeMath.sol\";\nimport \"./Result.sol\";\n\ncontract Management is Result {\n  using SafeMath for uint256;\n\n  address admin;\n  // Keeping track of IDs\n  uint256 nextStudentId = 0;\n  uint256 nextPupilId = 0;\n  uint256 nextStaffId = 0;\n\n  constructor() public {\n    admin = msg.sender;\n  }\n\n  modifier onlyAdmin() {\n    require(\n      msg.sender == admin,\n      \"Only staff can register students / pupils!\"\n    );\n    _;\n  }\n\n  mapping(uint256 => Student) public students;\n  mapping(uint256 => Pupil) public pupils;\n  mapping(uint256 => Staff) public staff;\n\n  // Major properties of student\n  struct Student {\n      uint256 id;\n      string hash;\n      address admin;\n  }\n\n  // Major Properties of pupil\n  struct Pupil {\n    uint256 id;\n    string hash;\n    address admin;\n  }\n\n  // Major Properties of staff\n  struct Staff {\n      uint256 id;\n      string hash;\n      address admin;\n  }\n\n  event newStaffHash(uint256 _date, uint256 _id, address _admin);\n  event newStudentHash(uint256 _date, uint256 _id, address _admin);\n  event newPupilHash(uint256 _date, uint256 _id, address _admin);\n\n  // Create new Staff\n  function sendStaffHash(string memory _hash) public onlyAdmin {\n      nextStaffId = nextStaffId.add(1);\n      Staff storage newStaff = staff[nextStaffId];\n      newStaff.id = nextStaffId;\n      newStaff.hash = _hash;\n      newStaff.admin = msg.sender;\n\n      emit newStaffHash(now, nextPupilId, msg.sender);\n  }\n\n  // Create new student\n  function sendStudentHash(string memory _hash) public onlyAdmin {\n      nextStudentId = nextStudentId.add(1);\n      Student storage newStudent = students[nextStudentId];\n      newStudent.id = nextStudentId;\n      newStudent.hash = _hash;\n      newStudent.admin = msg.sender;\n\n      emit newStudentHash(now, nextPupilId, msg.sender);\n  }\n\n  // Create new Pupil\n  function sendPupilHash(string memory _hash) public onlyAdmin {\n      nextPupilId = nextPupilId.add(1);\n      Student storage newPupil = students[nextPupilId];\n      newPupil.id = nextPupilId;\n      newPupil.hash = _hash;\n      newPupil.admin = msg.sender;\n\n      emit newPupilHash(now, nextPupilId, msg.sender);\n  }\n    \n  // Get Staff by id\n  function getStaffHash(uint256 _id) public view returns (uint256 id, string memory) {\n      return(\n          staff[_id].id,\n          staff[_id].hash\n      );\n  }\n\n  // Get Student by ID\n  function getStudentHash(uint256 _id) public view returns (uint256, string memory) {\n      return(\n          students[_id].id,\n          students[_id].hash\n      );\n  }\n\n  // Get Pupil by ID\n  function getPupilHash(uint256 _id) public view returns (uint256, string memory) {\n      return(\n          pupils[_id].id,\n          pupils[_id].hash\n      );\n  }\n\n}",
  "sourcePath": "C:\\Users\\Alabs\\Documents\\Management\\Management\\contracts\\Management.sol",
  "compiler": {
    "name": "solc",
    "version": "0.5.16+commit.9c3226ce.Emscripten.clang"
  },
  "schemaVersion": "3.2.1",
  "updatedAt": "2020-07-07T19:32:48.292Z",
  "networkType": "ethereum",
  "devdoc": {
    "methods": {}
  },
  "userdoc": {
    "methods": {}
  }
}