{
  "contractName": "Management",
  "abi": [
    {
      "inputs": [],
      "payable": false,
      "stateMutability": "nonpayable",
      "type": "constructor"
    },
    {
      "anonymous": false,
      "inputs": [
        {
          "indexed": false,
          "internalType": "address",
          "name": "_admin",
          "type": "address"
        },
        {
          "indexed": false,
          "internalType": "uint256",
          "name": "_id",
          "type": "uint256"
        }
      ],
      "name": "NewResult",
      "type": "event"
    },
    {
      "anonymous": false,
      "inputs": [
        {
          "indexed": false,
          "internalType": "address",
          "name": "student",
          "type": "address"
        },
        {
          "indexed": false,
          "internalType": "uint256",
          "name": "id",
          "type": "uint256"
        }
      ],
      "name": "newStudent",
      "type": "event"
    },
    {
      "constant": true,
      "inputs": [],
      "name": "courseCtr",
      "outputs": [
        {
          "internalType": "uint256",
          "name": "",
          "type": "uint256"
        }
      ],
      "payable": false,
      "stateMutability": "view",
      "type": "function"
    },
    {
      "constant": true,
      "inputs": [
        {
          "internalType": "uint256",
          "name": "",
          "type": "uint256"
        }
      ],
      "name": "courses",
      "outputs": [
        {
          "internalType": "uint256",
          "name": "id",
          "type": "uint256"
        },
        {
          "internalType": "address",
          "name": "admin",
          "type": "address"
        },
        {
          "internalType": "string",
          "name": "courseHash",
          "type": "string"
        }
      ],
      "payable": false,
      "stateMutability": "view",
      "type": "function"
    },
    {
      "constant": true,
      "inputs": [],
      "name": "getResultCtr",
      "outputs": [
        {
          "internalType": "uint256",
          "name": "",
          "type": "uint256"
        }
      ],
      "payable": false,
      "stateMutability": "view",
      "type": "function"
    },
    {
      "constant": true,
      "inputs": [
        {
          "internalType": "uint256",
          "name": "_id",
          "type": "uint256"
        }
      ],
      "name": "getResultHash",
      "outputs": [
        {
          "internalType": "uint256",
          "name": "id",
          "type": "uint256"
        },
        {
          "internalType": "address",
          "name": "admin",
          "type": "address"
        },
        {
          "internalType": "string",
          "name": "hash",
          "type": "string"
        }
      ],
      "payable": false,
      "stateMutability": "view",
      "type": "function"
    },
    {
      "constant": true,
      "inputs": [],
      "name": "getResultLength",
      "outputs": [
        {
          "internalType": "uint256",
          "name": "",
          "type": "uint256"
        }
      ],
      "payable": false,
      "stateMutability": "view",
      "type": "function"
    },
    {
      "constant": true,
      "inputs": [],
      "name": "resultCount",
      "outputs": [
        {
          "internalType": "uint256",
          "name": "",
          "type": "uint256"
        }
      ],
      "payable": false,
      "stateMutability": "view",
      "type": "function"
    },
    {
      "constant": false,
      "inputs": [
        {
          "internalType": "uint256",
          "name": "_id",
          "type": "uint256"
        },
        {
          "internalType": "string",
          "name": "hash",
          "type": "string"
        }
      ],
      "name": "sendResultHash",
      "outputs": [],
      "payable": false,
      "stateMutability": "nonpayable",
      "type": "function"
    },
    {
      "constant": true,
      "inputs": [],
      "name": "studentCtr",
      "outputs": [
        {
          "internalType": "uint256",
          "name": "",
          "type": "uint256"
        }
      ],
      "payable": false,
      "stateMutability": "view",
      "type": "function"
    },
    {
      "constant": true,
      "inputs": [
        {
          "internalType": "uint256",
          "name": "",
          "type": "uint256"
        }
      ],
      "name": "studentResults",
      "outputs": [
        {
          "internalType": "uint256",
          "name": "id",
          "type": "uint256"
        },
        {
          "internalType": "address",
          "name": "admin",
          "type": "address"
        },
        {
          "internalType": "string",
          "name": "hash",
          "type": "string"
        }
      ],
      "payable": false,
      "stateMutability": "view",
      "type": "function"
    },
    {
      "constant": true,
      "inputs": [
        {
          "internalType": "uint256",
          "name": "",
          "type": "uint256"
        }
      ],
      "name": "students",
      "outputs": [
        {
          "internalType": "uint256",
          "name": "id",
          "type": "uint256"
        },
        {
          "internalType": "address",
          "name": "admin",
          "type": "address"
        },
        {
          "internalType": "string",
          "name": "studentHash",
          "type": "string"
        }
      ],
      "payable": false,
      "stateMutability": "view",
      "type": "function"
    },
    {
      "constant": true,
      "inputs": [],
      "name": "transactionCtr",
      "outputs": [
        {
          "internalType": "uint256",
          "name": "",
          "type": "uint256"
        }
      ],
      "payable": false,
      "stateMutability": "view",
      "type": "function"
    },
    {
      "constant": true,
      "inputs": [
        {
          "internalType": "uint256",
          "name": "",
          "type": "uint256"
        }
      ],
      "name": "transactions",
      "outputs": [
        {
          "internalType": "uint256",
          "name": "id",
          "type": "uint256"
        },
        {
          "internalType": "address",
          "name": "admin",
          "type": "address"
        },
        {
          "internalType": "string",
          "name": "transactionHash",
          "type": "string"
        }
      ],
      "payable": false,
      "stateMutability": "view",
      "type": "function"
    },
    {
      "constant": false,
      "inputs": [
        {
          "internalType": "uint256",
          "name": "_id",
          "type": "uint256"
        },
        {
          "internalType": "string",
          "name": "_hash",
          "type": "string"
        }
      ],
      "name": "sendStudentHash",
      "outputs": [],
      "payable": false,
      "stateMutability": "nonpayable",
      "type": "function"
    },
    {
      "constant": false,
      "inputs": [
        {
          "internalType": "uint256",
          "name": "_id",
          "type": "uint256"
        },
        {
          "internalType": "string",
          "name": "_hash",
          "type": "string"
        }
      ],
      "name": "sendTransactionHash",
      "outputs": [],
      "payable": false,
      "stateMutability": "nonpayable",
      "type": "function"
    },
    {
      "constant": false,
      "inputs": [
        {
          "internalType": "uint256",
          "name": "_id",
          "type": "uint256"
        },
        {
          "internalType": "string",
          "name": "_hash",
          "type": "string"
        }
      ],
      "name": "sendCoureHash",
      "outputs": [],
      "payable": false,
      "stateMutability": "nonpayable",
      "type": "function"
    },
    {
      "constant": true,
      "inputs": [
        {
          "internalType": "uint256",
          "name": "_id",
          "type": "uint256"
        }
      ],
      "name": "getStudentHash",
      "outputs": [
        {
          "internalType": "uint256",
          "name": "id",
          "type": "uint256"
        },
        {
          "internalType": "address",
          "name": "admin",
          "type": "address"
        },
        {
          "internalType": "string",
          "name": "hash",
          "type": "string"
        }
      ],
      "payable": false,
      "stateMutability": "view",
      "type": "function"
    },
    {
      "constant": true,
      "inputs": [
        {
          "internalType": "uint256",
          "name": "_id",
          "type": "uint256"
        }
      ],
      "name": "getCourseHash",
      "outputs": [
        {
          "internalType": "uint256",
          "name": "id",
          "type": "uint256"
        },
        {
          "internalType": "address",
          "name": "admin",
          "type": "address"
        },
        {
          "internalType": "string",
          "name": "hash",
          "type": "string"
        }
      ],
      "payable": false,
      "stateMutability": "view",
      "type": "function"
    },
    {
      "constant": true,
      "inputs": [
        {
          "internalType": "uint256",
          "name": "_id",
          "type": "uint256"
        }
      ],
      "name": "getTransactionHash",
      "outputs": [
        {
          "internalType": "uint256",
          "name": "id",
          "type": "uint256"
        },
        {
          "internalType": "address",
          "name": "admin",
          "type": "address"
        },
        {
          "internalType": "string",
          "name": "hash",
          "type": "string"
        }
      ],
      "payable": false,
      "stateMutability": "view",
      "type": "function"
    },
    {
      "constant": true,
      "inputs": [],
      "name": "getStudentCtr",
      "outputs": [
        {
          "internalType": "uint256",
          "name": "",
          "type": "uint256"
        }
      ],
      "payable": false,
      "stateMutability": "view",
      "type": "function"
    },
    {
      "constant": true,
      "inputs": [],
      "name": "getCourseCtr",
      "outputs": [
        {
          "internalType": "uint256",
          "name": "",
          "type": "uint256"
        }
      ],
      "payable": false,
      "stateMutability": "view",
      "type": "function"
    },
    {
      "constant": true,
      "inputs": [],
      "name": "getTransactionCtr",
      "outputs": [
        {
          "internalType": "uint256",
          "name": "",
          "type": "uint256"
        }
      ],
      "payable": false,
      "stateMutability": "view",
      "type": "function"
    },
    {
      "constant": true,
      "inputs": [],
      "name": "getTrancLength",
      "outputs": [
        {
          "internalType": "uint256",
          "name": "",
          "type": "uint256"
        }
      ],
      "payable": false,
      "stateMutability": "view",
      "type": "function"
    },
    {
      "constant": true,
      "inputs": [],
      "name": "getCourseLength",
      "outputs": [
        {
          "internalType": "uint256",
          "name": "",
          "type": "uint256"
        }
      ],
      "payable": false,
      "stateMutability": "view",
      "type": "function"
    }
  ],
  "bytecode": "0x608060405234801561001057600080fd5b5033600860006101000a81548173ffffffffffffffffffffffffffffffffffffffff021916908373ffffffffffffffffffffffffffffffffffffffff16021790555061195c806100616000396000f3fe608060405234801561001057600080fd5b506004361061014d5760003560e01c806374ae1e24116100c35780639ace38c21161007c5780639ace38c2146103c2578063aa4fdefb146103f4578063c7d16dff14610412578063d6031cfb14610430578063e5f2ecac14610462578063ec6dff46146104805761014d565b806374ae1e24146102e65780638158045a1461030457806382c00a501461033657806396f979d214610354578063992eda6d146103865780639a6329ec146103a45761014d565b80630e5fe260116101155780630e5fe26014610220578063111343841461023e578063421e916214610270578063427520691461028e57806368a9e3b7146102ac57806373ac3fd3146102ca5761014d565b8063014a56331461015257806306ead22e146101845780630c1a215d146101b65780630da76766146101d25780630dd0838214610204575b600080fd5b61016c600480360361016791908101906114fb565b61049c565b60405161017b93929190611741565b60405180910390f35b61019e600480360361019991908101906114fb565b61058b565b6040516101ad93929190611741565b60405180910390f35b6101d060048036036101cb9190810190611524565b61066d565b005b6101ec60048036036101e791908101906114fb565b6107b2565b6040516101fb9392919061177f565b60405180910390f35b61021e60048036036102199190810190611524565b6108ca565b005b610228610a65565b6040516102359190611726565b60405180910390f35b610258600480360361025391908101906114fb565b610a6b565b6040516102679392919061177f565b60405180910390f35b610278610b9b565b6040516102859190611726565b60405180910390f35b610296610ba7565b6040516102a39190611726565b60405180910390f35b6102b4610bb1565b6040516102c19190611726565b60405180910390f35b6102e460048036036102df9190810190611524565b610bb7565b005b6102ee610d1a565b6040516102fb9190611726565b60405180910390f35b61031e600480360361031991908101906114fb565b610d24565b60405161032d9392919061177f565b60405180910390f35b61033e610e54565b60405161034b9190611726565b60405180910390f35b61036e600480360361036991908101906114fb565b610e61565b60405161037d93929190611741565b60405180910390f35b61038e610f50565b60405161039b9190611726565b60405180910390f35b6103ac610f5a565b6040516103b99190611726565b60405180910390f35b6103dc60048036036103d791908101906114fb565b610f67565b6040516103eb93929190611741565b60405180910390f35b6103fc611056565b6040516104099190611726565b60405180910390f35b61041a61105c565b6040516104279190611726565b60405180910390f35b61044a600480360361044591908101906114fb565b611066565b6040516104599392919061177f565b60405180910390f35b61046a611196565b6040516104779190611726565b60405180910390f35b61049a60048036036104959190810190611524565b61119c565b005b600081815481106104a957fe5b90600052602060002090600302016000915090508060000154908060010160009054906101000a900473ffffffffffffffffffffffffffffffffffffffff1690806002018054600181600116156101000203166002900480601f0160208091040260200160405190810160405280929190818152602001828054600181600116156101000203166002900480156105815780601f1061055657610100808354040283529160200191610581565b820191906000526020600020905b81548152906001019060200180831161056457829003601f168201915b5050505050905083565b60056020528060005260406000206000915090508060000154908060010160009054906101000a900473ffffffffffffffffffffffffffffffffffffffff1690806002018054600181600116156101000203166002900480601f0160208091040260200160405190810160405280929190818152602001828054600181600116156101000203166002900480156106635780601f1061063857610100808354040283529160200191610663565b820191906000526020600020905b81548152906001019060200180831161064657829003601f168201915b5050505050905083565b6106826001805461131890919063ffffffff16565b600181905550600060405180606001604052808481526020013373ffffffffffffffffffffffffffffffffffffffff16815260200183815250908060018154018082558091505090600182039060005260206000209060030201600090919290919091506000820151816000015560208201518160010160006101000a81548173ffffffffffffffffffffffffffffffffffffffff021916908373ffffffffffffffffffffffffffffffffffffffff160217905550604082015181600201908051906020019061075392919061136d565b505050507f27aeebb79058233f6105e074406c724c8c787ef2c63ec0e0a94d9c33ffea04b5336000848154811061078657fe5b9060005260206000209060030201600001546040516107a69291906116bd565b60405180910390a15050565b600080606060056000858152602001908152602001600020600001549250826005600086815260200190815260200160002060010160009054906101000a900473ffffffffffffffffffffffffffffffffffffffff16925082600560008781526020019081526020016000206002018054600181600116156101000203166002900480601f0160208091040260200160405190810160405280929190818152602001828054600181600116156101000203166002900480156108b55780601f1061088a576101008083540402835291602001916108b5565b820191906000526020600020905b81548152906001019060200180831161089857829003601f168201915b50505050509250829250925092509193909250565b600860009054906101000a900473ffffffffffffffffffffffffffffffffffffffff1673ffffffffffffffffffffffffffffffffffffffff163373ffffffffffffffffffffffffffffffffffffffff161461095a576040517f08c379a000000000000000000000000000000000000000000000000000000000815260040161095190611706565b60405180910390fd5b600660405180606001604052808481526020013373ffffffffffffffffffffffffffffffffffffffff16815260200183815250908060018154018082558091505090600182039060005260206000209060030201600090919290919091506000820151816000015560208201518160010160006101000a81548173ffffffffffffffffffffffffffffffffffffffff021916908373ffffffffffffffffffffffffffffffffffffffff1602179055506040820151816002019080519060200190610a2592919061136d565b50505050610a3f600160045461131890919063ffffffff16565b600481905550610a5b600160035461131890919063ffffffff16565b6003819055505050565b60035481565b600080606060078481548110610a7d57fe5b90600052602060002090600302016000015492508260078581548110610a9f57fe5b906000526020600020906003020160010160009054906101000a900473ffffffffffffffffffffffffffffffffffffffff1692508260078681548110610ae157fe5b90600052602060002090600302016002018054600181600116156101000203166002900480601f016020809104026020016040519081016040528092919081815260200182805460018160011615610100020316600290048015610b865780601f10610b5b57610100808354040283529160200191610b86565b820191906000526020600020905b815481529060010190602001808311610b6957829003601f168201915b50505050509250829250925092509193909250565b60008080549050905090565b6000600254905090565b60045481565b600860009054906101000a900473ffffffffffffffffffffffffffffffffffffffff1673ffffffffffffffffffffffffffffffffffffffff163373ffffffffffffffffffffffffffffffffffffffff1614610c47576040517f08c379a0000000000000000000000000000000000000000000000000000000008152600401610c3e90611706565b60405180910390fd5b600760405180606001604052808481526020013373ffffffffffffffffffffffffffffffffffffffff16815260200183815250908060018154018082558091505090600182039060005260206000209060030201600090919290919091506000820151816000015560208201518160010160006101000a81548173ffffffffffffffffffffffffffffffffffffffff021916908373ffffffffffffffffffffffffffffffffffffffff1602179055506040820151816002019080519060200190610d1292919061136d565b505050505050565b6000600354905090565b600080606060078481548110610d3657fe5b90600052602060002090600302016000015492508260078581548110610d5857fe5b906000526020600020906003020160010160009054906101000a900473ffffffffffffffffffffffffffffffffffffffff1692508260078681548110610d9a57fe5b90600052602060002090600302016002018054600181600116156101000203166002900480601f016020809104026020016040519081016040528092919081815260200182805460018160011615610100020316600290048015610e3f5780601f10610e1457610100808354040283529160200191610e3f565b820191906000526020600020905b815481529060010190602001808311610e2257829003601f168201915b50505050509250829250925092509193909250565b6000600780549050905090565b60078181548110610e6e57fe5b90600052602060002090600302016000915090508060000154908060010160009054906101000a900473ffffffffffffffffffffffffffffffffffffffff1690806002018054600181600116156101000203166002900480601f016020809104026020016040519081016040528092919081815260200182805460018160011615610100020316600290048015610f465780601f10610f1b57610100808354040283529160200191610f46565b820191906000526020600020905b815481529060010190602001808311610f2957829003601f168201915b5050505050905083565b6000600454905090565b6000600680549050905090565b60068181548110610f7457fe5b90600052602060002090600302016000915090508060000154908060010160009054906101000a900473ffffffffffffffffffffffffffffffffffffffff1690806002018054600181600116156101000203166002900480601f01602080910402602001604051908101604052809291908181526020018280546001816001161561010002031660029004801561104c5780601f106110215761010080835404028352916020019161104c565b820191906000526020600020905b81548152906001019060200180831161102f57829003601f168201915b5050505050905083565b60015481565b6000600154905090565b60008060606000848154811061107857fe5b9060005260206000209060030201600001549250826000858154811061109a57fe5b906000526020600020906003020160010160009054906101000a900473ffffffffffffffffffffffffffffffffffffffff16925082600086815481106110dc57fe5b90600052602060002090600302016002018054600181600116156101000203166002900480601f0160208091040260200160405190810160405280929190818152602001828054600181600116156101000203166002900480156111815780601f1061115657610100808354040283529160200191611181565b820191906000526020600020905b81548152906001019060200180831161116457829003601f168201915b50505050509250829250925092509193909250565b60025481565b600860009054906101000a900473ffffffffffffffffffffffffffffffffffffffff1673ffffffffffffffffffffffffffffffffffffffff163373ffffffffffffffffffffffffffffffffffffffff161461122c576040517f08c379a000000000000000000000000000000000000000000000000000000000815260040161122390611706565b60405180910390fd5b611242600160025461131890919063ffffffff16565b6002819055506000600560008481526020019081526020016000209050828160000181905550338160010160006101000a81548173ffffffffffffffffffffffffffffffffffffffff021916908373ffffffffffffffffffffffffffffffffffffffff160217905550818160020190805190602001906112c39291906113ed565b507f34b192848ba3563d836487a1372fba185d8a1afaf61c0061b2cf15192bba2f4c33600560008681526020019081526020016000206000015460405161130b9291906116bd565b60405180910390a1505050565b600080828401905083811015611363576040517f08c379a000000000000000000000000000000000000000000000000000000000815260040161135a906116e6565b60405180910390fd5b8091505092915050565b828054600181600116156101000203166002900490600052602060002090601f016020900481019282601f106113ae57805160ff19168380011785556113dc565b828001600101855582156113dc579182015b828111156113db5782518255916020019190600101906113c0565b5b5090506113e9919061146d565b5090565b828054600181600116156101000203166002900490600052602060002090601f016020900481019282601f1061142e57805160ff191683800117855561145c565b8280016001018555821561145c579182015b8281111561145b578251825591602001919060010190611440565b5b509050611469919061146d565b5090565b61148f91905b8082111561148b576000816000905550600101611473565b5090565b90565b600082601f8301126114a357600080fd5b81356114b66114b1826117ea565b6117bd565b915080825260208301602083018583830111156114d257600080fd5b6114dd8382846118af565b50505092915050565b6000813590506114f581611902565b92915050565b60006020828403121561150d57600080fd5b600061151b848285016114e6565b91505092915050565b6000806040838503121561153757600080fd5b6000611545858286016114e6565b925050602083013567ffffffffffffffff81111561156257600080fd5b61156e85828601611492565b9150509250929050565b61158181611879565b82525050565b6115908161183d565b82525050565b60006115a182611821565b6115ab818561182c565b93506115bb8185602086016118be565b6115c4816118f1565b840191505092915050565b60006115da82611816565b6115e4818561182c565b93506115f48185602086016118be565b6115fd816118f1565b840191505092915050565b6000611615601b8361182c565b91507f536166654d6174683a206164646974696f6e206f766572666c6f7700000000006000830152602082019050919050565b600061165560218361182c565b91507f4f6e6c792073746166662063616e2072656769737465722073747564656e747360008301527f21000000000000000000000000000000000000000000000000000000000000006020830152604082019050919050565b6116b78161186f565b82525050565b60006040820190506116d26000830185611578565b6116df60208301846116ae565b9392505050565b600060208201905081810360008301526116ff81611608565b9050919050565b6000602082019050818103600083015261171f81611648565b9050919050565b600060208201905061173b60008301846116ae565b92915050565b600060608201905061175660008301866116ae565b6117636020830185611587565b818103604083015261177581846115cf565b9050949350505050565b600060608201905061179460008301866116ae565b6117a16020830185611587565b81810360408301526117b38184611596565b9050949350505050565b6000604051905081810181811067ffffffffffffffff821117156117e057600080fd5b8060405250919050565b600067ffffffffffffffff82111561180157600080fd5b601f19601f8301169050602081019050919050565b600081519050919050565b600081519050919050565b600082825260208201905092915050565b60006118488261184f565b9050919050565b600073ffffffffffffffffffffffffffffffffffffffff82169050919050565b6000819050919050565b60006118848261188b565b9050919050565b60006118968261189d565b9050919050565b60006118a88261184f565b9050919050565b82818337600083830152505050565b60005b838110156118dc5780820151818401526020810190506118c1565b838111156118eb576000848401525b50505050565b6000601f19601f8301169050919050565b61190b8161186f565b811461191657600080fd5b5056fea365627a7a7231582029485ecf0c5fcaccb5af871b2120aa8c83d8fe313e02984931e3d478687a33f76c6578706572696d656e74616cf564736f6c63430005100040",
  "source": "pragma solidity >=0.5.8 <0.7.0;\npragma experimental ABIEncoderV2;\nimport \"./SafeMath.sol\";\nimport \"./Result.sol\";\n\ncontract Management is Result {\n    using SafeMath for uint256;\n\n    // A counter for the students mapping an array list.\n    uint256 public studentCtr;\n    uint256 public courseCtr;\n    uint256 public transactionCtr;\n\n    mapping(uint256 => Student) public students;\n    Transaction[] public transactions;\n    Course[] public courses;\n    // Transaction[] public transactions;\n\n    address staff;\n\n    modifier onlyStaff() {\n        require(\n            msg.sender == staff,\n            \"Only staff can register students!\"\n        );\n        _;\n    }\n\n    constructor() public {\n        staff = msg.sender;\n    }\n\n    // Major properties of a student\n    struct Student {\n        uint256 id;\n        address admin;\n        string studentHash;\n    }\n\n    struct Course {\n        uint256 id;\n        address admin;\n        string courseHash;\n    }\n\n    struct Transaction {\n        uint256 id;\n        address admin;\n        string transactionHash;\n    }\n\n    // event will notify new student\n    event newStudent(address student, uint256 id);\n\n    // Setters\n    function sendStudentHash (uint256 _id, string memory _hash) public onlyStaff {\n        studentCtr = studentCtr.add(1);\n        Student storage adding = students[_id];\n        adding.id = _id;\n        adding.admin = msg.sender;\n        adding.studentHash = _hash;\n\n        emit newStudent(msg.sender, students[_id].id);\n    }\n\n    function sendTransactionHash(uint256 _id, string memory _hash) public onlyStaff {\n        transactions.push(Transaction(_id, msg.sender, _hash));\n        transactionCtr = transactionCtr.add(1);\n        courseCtr = courseCtr.add(1);\n    }\n\n    function sendCoureHash(uint256 _id, string memory _hash) public onlyStaff {\n        courses.push(Course(_id, msg.sender, _hash));\n\n    }\n\n    /**\n        Getters\n    */\n    function getStudentHash(uint256 _id) public view returns (\n        uint256 id,\n        address admin,\n        string memory hash\n    ) {\n        return(\n            id = students[_id].id,\n            admin = students[_id].admin,\n            hash = students[_id].studentHash\n        );\n    }\n\n    function getCourseHash(uint256 _id) public view returns(\n        uint256 id,\n        address admin,\n        string memory hash\n    ) {\n        return(\n            id = courses[_id].id,\n            admin = courses[_id].admin,\n            hash = courses[_id].courseHash\n        );\n    }\n\n    function getTransactionHash(uint256 _id) public view returns(\n        uint256 id,\n        address admin,\n        string memory hash\n    ) {\n        return(\n            id = courses[_id].id,\n            admin = courses[_id].admin,\n            hash = courses[_id].courseHash\n        );\n    }\n\n    /**\n        Counters\n    */\n    function getStudentCtr() public view returns(uint256) { return studentCtr; }\n\n    function getCourseCtr() public view returns(uint256) { return courseCtr; }\n\n    function getTransactionCtr() public view returns(uint256) { return transactionCtr; }\n\n    function getTrancLength() public view returns(uint256) { return transactions.length; }\n    function getCourseLength() public view returns(uint256) { return courses.length; }\n}",
  "sourcePath": "C:\\Users\\Alabs\\Desktop\\Folders\\eManagement\\contracts\\Management.sol",
  "compiler": {
    "name": "solc",
    "version": "0.5.16+commit.9c3226ce.Emscripten.clang"
  },
  "schemaVersion": "3.1.0",
  "updatedAt": "2020-06-04T16:30:33.144Z",
  "networkType": "ethereum",
  "devdoc": {
    "methods": {}
  },
  "userdoc": {
    "methods": {
      "getStudentCtr()": {
        "notice": "Counters"
      },
      "getStudentHash(uint256)": {
        "notice": "Getters"
      }
    }
  }
}